:04000000BDEF00F060
:100008005E82FACF64F0FBCF65F0E1CF66F0E2CF15
:1000180067F0D9CF68F0DACF69F0F3CF6AF0F4CFA0
:100028006BF0F6CF6CF0F7CF6DF0F8CF6EF0F5CF40
:100038006FF00E01BDA123EF00F025EF00F0A3EF54
:1000480000F0C5A12AEF00F02CEF00F0A3EF00F0BC
:1000580099EC9CF00009D8B434EF00F036EF00F0CA
:10006800A1EF00F0FDEC9CF045EC9DF021C074F090
:1000780022C075F015EC9DF021C076F022C077F013
:100088002DEC9DF021C078F022C079F05DEC9DF058
:1000980021C07AF022C07BF0DF0E0001606FFF0EF6
:1000A800616F74C062F075C063F09DEC9EF0EC0E59
:1000B8000001606FFF0E616F76C062F077C063F079
:1000C8009DEC9EF0D20E0001606FFF0E616F78C04C
:1000D80062F079C063F09DEC9EF0C50E0001606F80
:1000E800FF0E616F7AC062F07BC063F09DEC9EF0FA
:1000F80076C001F077C002F078C003F079C004F050
:100108007AC005F07BC006F000EC96F001C070F0F4
:1001180002C071F003C072F004C073F070C01DF02B
:1001280071C01EF072C01FF073C020F02A0E216E3D
:10013800010E226E0A0EFFEC94F02DECA1F06FC0B8
:10014800F5FF6EC0F8FF6DC0F7FF6CC0F6FF6BC01F
:10015800F4FF6AC0F3FF69C0DAFF68C0D9FF67C05F
:10016800E2FF66C0E1FF65C0FBFF64C0FAFF5E9274
:06017800110093EF9AF064
:10FDD80000764001CC3F01B23F018E1D0180210118
:10FDE800604001622801464101344101224101106D
:10FDF8004101FE4001EC4001DA40014A4001882BF4
:10FE0800012D2D2D2D2D2D2D2D2D2D2D2D2D2D2D46
:10FE18002D2D2D2D2D2D2D2D2D2D2D2D2D2D2D2D0A
:10FE28002D2D2D2D2D2D2D2D2D2D2D2D2D2D2D2DFA
:10FE38000A0D0054435333343731207365742069F5
:10FE48006E7465727275707420686967682074686A
:10FE5800726573686F6C640A0054435333343731E6
:10FE68002073657420696E74657272757074206C85
:10FE78006F77207468726573686F6C640A000A444F
:10FE880061746120746F206265207772697474658B
:10FE98006E20746F20454550524F4D3A0A0A0D00A6
:10FEA8005443533334373120696E746572727570F8
:10FEB800742070657273697374656E63650A0054A3
:10FEC8004353333437312073657420696E74656722
:10FED800726174696F6E2074696D650A00454550DA
:10FEE800524F4D2048696768204164647265737396
:10FEF8003A307825780A0D0054435333343731208B
:10FF0800696E7465727275707420656E61626C6575
:10FF18000A00454550524F4D204C6F77204164648C
:10FF2800726573733A307825780A0D005443533359
:10FF380034373120636C65617220696E7465727242
:10FF48007570740A005443533334373120646F6535
:10FF580073206E6F742065786973740A0054435374
:10FF6800333437312073657420776169742074697C
:10FF78006D650A000A0D454550524F4D2052656186
:10FF88006420446174613A0A0A0D005443533334BF
:10FF9800373120736574206761696E0A00544353D2
:10FFA8003334373120656E61626C650A00544353FF
:10FFB80033343731204465746563740A00626C75A4
:10FFC800652069732025780A0A00677265656E20C6
:10FFD80069732025780A004C696768742069732062
:10FFE80025780A007265642069732025780A003034
:07FFF80078257820200000AD
:020000040001F9
:100000007CC0D9FF7DC0DAFFDECF7EF0DECF7FF08F
:10001000DECF80F0DECF81F000017EA112EF80F014
:1000200014EF80F01CEF80F0828E030EE82EFED7D6
:1000300000F0829E23EF80F0828E00D000D000F08E
:10004000829E00D000D00001D890813380337F336E
:100050007E337EA12EEF80F030EF80F038EF80F01D
:10006000828E030EE82EFED700F0829E3FEF80F0D6
:10007000828E00D000D000F0829E00D000D000011F
:10008000D890813380337F337E337EA14AEF80F076
:100090004CEF80F054EF80F0828E030EE82EFED7F6
:1000A00000F0829E5BEF80F0828E00D000D000F0E6
:1000B000829E00D000D00001D890813380337F33FE
:1000C0007E337EA166EF80F068EF80F070EF80F005
:1000D000828E030EE82EFED700F0829E77EF80F02E
:1000E000828E00D000D000F0829E00D000D00001AF
:1000F000D890813380337F337E337EA182EF80F0CE
:1001000084EF80F08CEF80F0828E030EE82EFED715
:1001100000F0829E93EF80F0828E00D000D000F03D
:10012000829E00D000D00001D890813380337F338D
:100130007E337EA19EEF80F0A0EF80F0A8EF80F0EC
:10014000828E030EE82EFED700F0829EAFEF80F085
:10015000828E00D000D000F0829E00D000D000013E
:10016000D890813380337F337E337EA1BAEF80F025
:10017000BCEF80F0C4EF80F0828E030EE82EFED735
:1001800000F0829ECBEF80F0828E00D000D000F095
:10019000829E00D000D00001D890813380337F331D
:1001A0007E337EA1D6EF80F0D8EF80F0E0EF80F0D4
:1001B000828E030EE82EFED700F0829EE7EF80F0DD
:1001C000828E00D000D000F0829E00D000D00001CE
:1001D000D890813380337F337E337EA1F2EF80F07D
:1001E000F4EF80F0FCEF80F0828E030EE82EFED755
:1001F00000F0829E03EF81F0828E00D000D000F0EC
:10020000829E00D000D00001D890813380337F33AC
:100210007E337EA10EEF81F010EF81F018EF81F0B8
:10022000828E030EE82EFED700F0829E1FEF81F033
:10023000828E00D000D000F0829E00D000D000015D
:10024000D890813380337F337E337EA12AEF81F0D3
:100250002CEF81F034EF81F0828E030EE82EFED772
:1002600000F0829E3BEF81F0828E00D000D000F043
:10027000829E00D000D00001D890813380337F333C
:100280007E337EA146EF81F048EF81F050EF81F0A0
:10029000828E030EE82EFED700F0829E57EF81F08B
:1002A000828E00D000D000F0829E00D000D00001ED
:1002B000D890813380337F337E337EA162EF81F02B
:1002C00064EF81F06CEF81F0828E030EE82EFED792
:1002D00000F0829E73EF81F0828E00D000D000F09B
:1002E000829E00D000D00001D890813380337F33CC
:1002F0007E337EA17EEF81F080EF81F088EF81F088
:10030000828E030EE82EFED700F0829E8FEF81F0E2
:10031000828E00D000D000F0829E00D000D000017C
:10032000D890813380337F337E337EA19AEF81F082
:100330009CEF81F0A4EF81F0828E030EE82EFED7B1
:1003400000F0829EABEF81F0828E00D000D000F0F2
:10035000829E00D000D00001D890813380337F335B
:100360007E337EA1B6EF81F0B8EF81F0C0EF81F06F
:10037000828E030EE82EFED700F0829EC7EF81F03A
:10038000828E00D000D000F0829E00D000D000010C
:10039000D890813380337F337E337EA1D2EF81F0DA
:1003A000D4EF81F0DCEF81F0828E030EE82EFED7D1
:1003B00000F0829EE3EF81F0828E00D000D000F04A
:1003C000829E00D000D00001D890813380337F33EB
:1003D0007E337EA1EEEF81F0F0EF81F0F8EF81F057
:1003E000828E030EE82EFED700F0829EFFEF81F092
:1003F000828E00D000D000F0829E00D000D000019C
:10040000D890813380337F337E337EA10AEF82F030
:100410000CEF82F014EF82F0828E030EE82EFED7EE
:1004200000F0829E1BEF82F0828E00D000D000F0A0
:10043000829E00D000D00001D890813380337F337A
:100440007E337EA126EF82F028EF82F030EF82F03B
:10045000828E030EE82EFED700F0829E37EF82F0E8
:10046000828E00D000D000F0829E00D000D000012B
:10047000D890813380337F337E337EA142EF82F088
:1004800044EF82F04CEF82F0828E030EE82EFED70E
:1004900000F0829E53EF82F0828E00D000D000F0F8
:1004A000829E00D000D00001D890813380337F330A
:1004B0007E337EA15EEF82F060EF82F068EF82F023
:1004C000828E030EE82EFED700F0829E6FEF82F040
:1004D000828E00D000D000F0829E00D000D00001BB
:1004E000D890813380337F337E337EA17AEF82F0E0
:1004F0007CEF82F084EF82F0828E030EE82EFED72E
:1005000000F0829E8BEF82F0828E00D000D000F04F
:10051000829E00D000D00001D890813380337F3399
:100520007E337EA196EF82F098EF82F0A0EF82F00A
:10053000828E030EE82EFED700F0829EA7EF82F097
:10054000828E00D000D000F0829E00D000D000014A
:10055000D890813380337F337E33120001C0D9FFBE
:1005600002C0DAFFDECF03F0DECF04F0DECF05F00D
:10057000DECF06F003A0BFEF82F0C1EF82F0C9EF3B
:1005800082F0828E030EE82EFED700F0829ED0EF1E
:1005900082F0828E00D000D000F0829E00D000D089
:1005A000D890063205320432033203A0DAEF82F02B
:1005B000DCEF82F0E4EF82F0828E030EE82EFED7AD
:1005C00000F0829EEBEF82F0828E00D000D000F02F
:1005D000829E00D000D0D890063205320432033219
:1005E00003A0F5EF82F0F7EF82F0FFEF82F0828E4A
:1005F000030EE82EFED700F0829E06EF83F0828E77
:1006000000D000D000F0829E00D000D0D8900632FA
:1006100005320432033203A010EF83F012EF83F0AF
:100620001AEF83F0828E030EE82EFED700F0829E32
:1006300021EF83F0828E00D000D000F0829E00D0A7
:1006400000D0D890063205320432033203A02BEFDB
:1006500083F02DEF83F035EF83F0828E030EE82ECA
:10066000FED700F0829E3CEF83F0828E00D000D057
:1006700000F0829E00D000D0D890063205320432BD
:10068000033203A046EF83F048EF83F050EF83F08E
:10069000828E030EE82EFED700F0829E57EF83F085
:1006A000828E00D000D000F0829E00D000D0D89082
:1006B000063205320432033203A061EF83F063EFA8
:1006C00083F06BEF83F0828E030EE82EFED700F0EE
:1006D000829E72EF83F0828E00D000D000F0829E66
:1006E00000D000D0D890063205320432033203A085
:1006F0007CEF83F07EEF83F086EF83F0828E030E33
:10070000E82EFED700F0829E8DEF83F0828E00D01F
:1007100000D000F0829E00D000D0D8900632053282
:100720000432033203A097EF83F099EF83F0A1EF37
:1007300083F0828E030EE82EFED700F0829EA8EF93
:1007400083F0828E00D000D000F0829E00D000D0D6
:10075000D890063205320432033203A0B2EF83F0A0
:10076000B4EF83F0BCEF83F0828E030EE82EFED749
:1007700000F0829EC3EF83F0828E00D000D000F0A4
:10078000829E00D000D0D890063205320432033267
:1007900003A0CDEF83F0CFEF83F0D7EF83F0828E0D
:1007A000030EE82EFED700F0829EDEEF83F0828EED
:1007B00000D000D000F0829E00D000D0D890063249
:1007C00005320432033203A0E8EF83F0EAEF83F04E
:1007D000F2EF83F0828E030EE82EFED700F0829EA9
:1007E000F9EF83F0828E00D000D000F0829E00D01E
:1007F00000D0D890063205320432033203A003EF52
:1008000084F005EF84F00DEF84F0828E030EE82E65
:10081000FED700F0829E14EF84F0828E00D000D0CC
:1008200000F0829E00D000D0D8900632053204320B
:10083000033203A01EEF84F020EF84F028EF84F051
:10084000828E030EE82EFED700F0829E2FEF84F0FA
:10085000828E00D000D000F0829E00D000D0D890D0
:10086000063205320432033203A039EF84F03BEF45
:1008700084F043EF84F0828E030EE82EFED700F062
:10088000829E4AEF84F0828E00D000D000F0829EDB
:1008900000D000D0D890063205320432033203A0D3
:1008A00054EF84F056EF84F05EEF84F0828E030EF6
:1008B000E82EFED700F0829E65EF84F0828E00D095
:1008C00000D000F0829E00D000D0D89006320532D1
:1008D0000432033203A06FEF84F071EF84F079EFFC
:1008E00084F0828E030EE82EFED700F0829E80EF09
:1008F00084F0828E00D000D000F0829E00D000D024
:10090000D890063205320432033203A08AEF84F015
:100910008CEF84F094EF84F0828E030EE82EFED7E5
:1009200000F0829E9BEF84F0828E00D000D000F019
:10093000829E00D000D0D8900632053204320332B5
:1009400003A0A5EF84F0A7EF84F0AFEF84F0828ED0
:10095000030EE82EFED700F0829EB6EF84F0828E62
:1009600000D000D000F0829E00D000D0D890063297
:1009700005320432033203A0C0EF84F0C2EF84F0EA
:10098000CAEF84F0828E030EE82EFED700F0829E1E
:10099000D1EF84F0828E00D000D000F0829E00D093
:1009A00000D0D890063205320432033203A0DBEFC8
:1009B00084F0DDEF84F0E5EF84F0828E030EE82E04
:1009C000FED700F0829EECEF84F0828E00D000D043
:1009D00000F0829E00D000D0D8900632053204325A
:1009E000033203A0F6EF84F0F8EF84F000EF85F017
:1009F000828E030EE82EFED700F0829E07EF85F070
:100A0000828E00D000D000F0829E00D000D0D8901E
:100A1000063205320432033203A011EF85F013EFE2
:100A200085F01BEF85F0828E030EE82EFED700F0D6
:100A3000829E22EF85F0828E00D000D000F0829E50
:100A400000D000D0D890063205320432033203A021
:100A50002CEF85F02EEF85F036EF85F0828E030EB9
:100A6000E82EFED700F0829E3DEF85F0828E00D00A
:100A700000D000F0829E00D000D0D890063205321F
:100A800004320332120000017F51800B886F7F51C6
:100A90007F258E6F7EAF4FEF85F051EF85F052EFDF
:100AA00085F08E818E51D8B458EF85F05AEF85F0DD
:100AB0006DEF85F08E29D8A460EF85F062EF85F0A8
:100AC0006AEF85F0000E7C6F000E7D6F000E7E6F6A
:100AD000000E7F6F7E8F75EF85F0000E7C6F000E2D
:100AE0007D6F000E7E6F000E7F6F8351800B881B21
:100AF00083518325896F82AF80EF85F082EF85F087
:100B000083EF85F089818951D8B489EF85F08BEF27
:100B100085F09EEF85F08929D8A491EF85F093EFB9
:100B200085F09BEF85F0000E806F000E816F000E48
:100B3000826F000E836F828FA6EF85F0000E806FAC
:100B4000000E816F000E826F000E836F8951D8B442
:100B5000ACEF85F0AEEF85F0B6EF85F08E51D8A4FE
:100B6000B4EF85F0B6EF85F0C0EF85F0000E7C6F36
:100B7000000E7D6F000E7E6F000E7F6F58EF87F0C6
:100B800082517C03F3CF93F0F4CF94F093518A6FAA
:100B90008B6B8C6B8D6B94518F6F906B916B926B99
:100BA00081517D03F3CF93F0F4CF94F093518A27D2
:100BB000000E8B238C238D2394518F27000E9023BE
:100BC0009123922380517E03F3CF93F0F4CF94F0DE
:100BD00093518A27000E8B238C238D2394518F27CA
:100BE000000E9023912392238CC08DF08BC08CF04B
:100BF0008AC08BF08A6B80517D03F3CF93F0F4CFE2
:100C000094F093518A2794518B23000E8C23000E6D
:100C10008D2381517C03F3CF93F0F4CF94F0935163
:100C20008A2794518B23000E8C23000E8D238CC0B9
:100C30008DF08BC08CF08AC08BF08A6B80517C0366
:100C4000F3CF93F0F4CF94F093518A2794518B23F0
:100C5000000E8C23000E8D2382517D03F3CF93F081
:100C6000F4CF94F093518F2794519023000E912349
:100C7000000E922381517E03F3CF93F0F4CF94F0D2
:100C800093518F2794519023000E9123000E9223AD
:100C900082517E03F3CF93F0F4CF94F09351846F9D
:100CA0009451856F866B876B86C087F085C086F010
:100CB00084C085F0846B84518F27855190238651A1
:100CC0009123875192238AC084F08BC085F08CC019
:100CD00086F08DC087F0190E73EF86F0D8908733B9
:100CE000863385338433E82E6EEF86F084518F2768
:100CF0008551902386519123875192238CC08DF08A
:100D00008BC08CF08AC08BF08A6B89518EC084F0C6
:100D1000856B8427000E8523820E8425936FFF0E3A
:100D20008521946FA9EF86F0D8908F37903791374F
:100D300092378DAF9EEF86F0A0EF86F0A1EF86F0A0
:100D40008F81D8908A378B378C378D379307D8A00F
:100D5000940791AFAEEF86F0B0EF86F094EF86F097
:100D6000000E896F8DAFB7EF86F0B9EF86F0DDEF3B
:100D700086F0FF0E8A15846FFF0E8B15856FFF0EB0
:100D80008C15866F7F0E8D15876F845185118611A6
:100D90008711D8B4CEEF86F0D0EF86F0D4EF86F08E
:100DA000010E896FDDEF86F08FA1D9EF86F0DBEFC2
:100DB00086F0DDEF86F0D0EF86F08951D8B4E3EF0E
:100DC00086F0E5EF86F009EF87F0010E8F27000E21
:100DD00090239123922392A1F0EF86F0F2EF86F018
:100DE00009EF87F08FC084F090C085F091C086F045
:100DF00092C087F08735873386338533843384C048
:100E00008FF085C090F086C091F087C092F0934B30
:100E1000942B94BF14EF87F0945108E19329D8A044
:100E200014EF87F016EF87F020EF87F0000E8F6F3A
:100E3000000E906F800E916F7F0E926F4EEF87F0D5
:100E400094BF2DEF87F0945106E19305D8B02BEFB6
:100E500087F02DEF87F039EF87F0000E8F6F000ECF
:100E6000906F000E916F000E926F000E886F4EEF24
:100E700087F093C08EF0FF0E8F17FF0E90177F0E36
:100E80009117000E92178EA148EF87F04AEF87F076
:100E90004BEF87F0918FD8908E31926F88519213DB
:100EA0008FC07CF090C07DF091C07EF092C07FF04A
:100EB00012000001CDBF5FEF87F061EF87F062EFB6
:100EC00087F0CE93CDBF6FEF87F0CD5106E1CC0513
:100ED000D8B06DEF87F06FEF87F075EF87F0000EF9
:100EE000AD6F010EAC6F79EF87F0CCC0ACF0CDC028
:100EF000ADF0CAC0AEF0CBC0AFF0CEA982EF87F0A4
:100F000084EF87F088EF87F0FE0EAE27FF0EAF2349
:100F10009BC0B0F09CC0B1F09DC0B2F09EC0B3F0D9
:100F20009FC0B4F0A0C0B5F0A1C0B6F0A2C0B7F0A9
:100F3000000EB96F1F0EB86F000E0101896F3BEFF5
:100F400088F0B807D8A0B9070F0EB015BA6FBB6B01
:100F5000BBBFB4EF87F0BB5109E10A0EBA5DD8A060
:100F6000B4EF87F0B6EF87F0BEEF87F0570EBA25E3
:100F7000BA6F000EBB21BB6FC4EF87F0300EBA25ED
:100F8000BA6F000EBB21BB6FBF0EA46FFF0EA56F23
:100F9000A351A66FA76BA451A627A551A723A751BC
:100FA00007E11A0EA65DD8B0D8EF87F0DAEF87F028
:100FB000FDEF87F09F0EA46FFF0EA56F200EBA11F4
:100FC000A66F000EBB11A76FA451A627A551A7239A
:100FD000A75107E11A0EA65DD8B0F1EF87F0F3EF45
:100FE00087F0FDEF87F0BAC082F0BBC083F0A3ECBE
:100FF00099F082C0BAF083C0BBF06A0E0001B82538
:10100000D96E010EB921DA6EBAC0DFFFAC07D8A0E5
:10101000AD07AE07D8A0AF07B0C0A4F0B1C0A5F02F
:10102000B2C0A6F0B3C0A7F0B4C0A8F0B5C0A9F094
:10103000B6C0AAF0B7C0ABF0050E28EF88F0D89084
:10104000AB33AA33A933A833A733A633A533A433CC
:10105000E82E1FEF88F0A4C0B0F0A5C0B1F0A6C084
:10106000B2F0A7C0B3F0A8C0B4F0A9C0B5F0AAC050
:10107000B6F0ABC0B7F00001B9BF48EF88F0B95186
:1010800009E1020EB85DD8A048EF88F04AEF88F079
:101090007AEF88F0B051B111B211B311B411B5119A
:1010A000B611B711D8A457EF88F059EF88F0A1EF27
:1010B00087F0ADBF66EF88F0AD5106E1AC05D8B062
:1010C00064EF88F066EF88F0A1EF87F0AFBF71EFB3
:1010D00088F0AF5108E1AE05D8A071EF88F073EF4A
:1010E00088F07AEF88F0CEB378EF88F07AEF88F066
:1010F000A1EF87F0CEA97FEF88F081EF88F097EF1E
:1011000088F0B807D8A0B9076A0EB825D96E010EC5
:10111000B921DA6EA3C0DFFFB807D8A0B9076A0EFD
:10112000B825D96E010EB921DA6E300EDF6E99C086
:101130008EF09AC08FF06A0EB825906F010EB9211B
:10114000916FAEC092F0AFC093F031EC8FF08EC0D3
:1011500099F08FC09AF012000001CDBFB2EF88F075
:10116000B4EF88F0B5EF88F0CE93CDBFC2EF88F032
:10117000CD5106E1CC05D8B0C0EF88F0C2EF88F0C1
:10118000C8EF88F0000E326E010E316ECCEF88F0A1
:10119000CCC031F0CDC032F0CAC033F0CBC034F097
:1011A000CEA9D5EF88F0D7EF88F0DBEF88F0FE0E00
:1011B0003326FF0E342220C035F021C036F022C085
:1011C00037F023C038F024C039F025C03AF026C0EB
:1011D0003BF027C03CF0000E3E6E1F0E3D6E000E31
:1011E0000101896F8DEF89F03D06D8A03E060F0EF4
:1011F00035143F6E406A40BE07EF89F0405009E168
:101200000A0E3F5CD8A007EF89F009EF89F011EFD3
:1012100089F0570E3F243F6E000E4020406E17EFBE
:1012200089F0300E3F243F6E000E4020406EBF0E0E
:10123000296EFF0E2A6E28502B6E2C6A29502B2601
:101240002A502C222C5007E11A0E2B5CD8B02BEF21
:1012500089F02DEF89F050EF89F09F0E296EFF0E77
:101260002A6E200E3F102B6E000E40102C6E29505F
:101270002B262A502C222C5007E11A0E2B5CD8B0BA
:1012800044EF89F046EF89F050EF89F03FC003F05A
:1012900040C004F0E9EC99F003C03FF004C040F016
:1012A0006A0E3D24D96E010E3E20DA6E3FC0DFFF8C
:1012B0003106D8A032063306D8A0340635C029F04E
:1012C00036C02AF037C02BF038C02CF039C02DF0D2
:1012D0003AC02EF03BC02FF03CC030F0050E7AEF44
:1012E00089F0D89030322F322E322D322C322B32E0
:1012F0002A322932E82E71EF89F029C035F02AC050
:1013000036F02BC037F02CC038F02DC039F02EC08D
:101310003AF02FC03BF030C03CF03EBE99EF89F070
:101320003E5009E1020E3D5CD8A099EF89F09BEF99
:1013300089F0CCEF89F0355036103710381039105D
:101340003A103B103C10D8A4A8EF89F0AAEF89F01E
:10135000F4EF88F032BEB7EF89F0325006E1310485
:10136000D8B0B5EF89F0B7EF89F0F4EF88F034BE6C
:10137000C2EF89F0345008E13304D8A0C2EF89F0FD
:10138000C4EF89F0CCEF89F00001CEB3CAEF89F049
:10139000CCEF89F0F4EF88F00001CEA9D2EF89F00C
:1013A000D4EF89F0EAEF89F03D06D8A03E066A0E38
:1013B0003D24D96E010E3E20DA6E28C0DFFF3D06C7
:1013C000D8A03E066A0E3D24D96E010E3E20DA6E8C
:1013D000300EDF6E1EC013F01FC014F06A0E3D24E5
:1013E000156E010E3E20166E33C017F034C018F093
:1013F0005DEC90F013C01EF014C01FF01200BEC0D0
:10140000D9FFBFC0DAFFDECFF6FFDDCFF7FF000E5A
:10141000F86E0800F550250AD8A411EF8AF013EFF2
:101420008AF0D7EF8AF0BEC0D9FFBFC0DAFFDE2A4C
:10143000000EDD22000E0001CB6F000ECA6FCAC085
:10144000CEF0CBC0CFF0CC69CD69BEC0D9FFBFC054
:10145000DAFFDECFF6FFDDCFF7FF000EF86E0800F3
:10146000F550780AD8B437EF8AF039EF8AF04DEFAB
:101470008AF0BEC0D9FFBFC0DAFFDECFF6FFDDCFF6
:10148000F7FF000EF86E0800F550580AD8A44BEF8D
:101490008AF04DEF8AF09EEF8AF0BEC0D9FFBFC040
:1014A000DAFFDECFF6FFDDCFF7FF000EF86E0800A3
:1014B000F5CF92F1BEC0D9FFBFC0DAFFDE2A000E21
:1014C000DD22C0C0D9FFC1C0DAFFDFCFC2F0020EFB
:1014D000DE26DFCFC3F0000EDD22C2C0D9FFC3C0BD
:1014E000DAFFDECFC4F0DDCFC5F0C4C08AF1C5C0DD
:1014F0008BF101018C6B8D6B8E6B8F6B906B916B95
:10150000BCC099F0BDC09AF08AC19BF08BC19CF021
:101510008CC19DF08DC19EF08EC19FF08FC1A0F057
:1015200090C1A1F091C1A2F092C1A3F059EC87F053
:1015300099C0BCF09AC0BDF0F5EF8AF0BEC0D9FFEB
:10154000BFC0DAFFDECFF6FFDDCFF7FF000EF86E8B
:101550000800F550250AD8A4B0EF8AF0B2EF8AF05F
:10156000CAEF8AF0BEC0D9FFBFC0DAFFDE2A000E84
:10157000DD22000E7F6F250E7E6FBCC080F0BDC0E7
:1015800081F0BDEC92F0000E0001BD6F010EBC6F4A
:10159000F5EF8AF0BEC0D9FFBFC0DAFFDE2A000E29
:1015A000DD22000EBD6F000EBC6FF5EF8AF0BEC0ED
:1015B000D9FFBFC0DAFFDECFF6FFDDCFF7FF000EA9
:1015C000F86E0800F55000017E6F7F6BBCC080F0A4
:1015D000BDC081F0BDEC92F0BEC0D9FFBFC0DAFF44
:1015E000DE2A000EDD22C3EF8AF0120043C0D9FFCD
:1015F00044C0DAFFDECFF6FFDDCFF7FF000EF86E56
:101600000800F550250AD8A408EF8BF00AEF8BF0FC
:10161000CCEF8BF043C0D9FF44C0DAFFDE2A000EC6
:10162000DD22000E0001CB6F000ECA6FCAC0CEF0E3
:10163000CBC0CFF0CC69CD6943C0D9FF44C0DAFF3D
:10164000DECFF6FFDDCFF7FF000EF86E0800F55095
:10165000780AD8B42EEF8BF030EF8BF044EF8BF09C
:1016600043C0D9FF44C0DAFFDECFF6FFDDCFF7FF7E
:10167000000EF86E0800F550580AD8A442EF8BF01F
:1016800044EF8BF094EF8BF043C0D9FF44C0DAFFF6
:10169000DECFF6FFDDCFF7FF000EF86E0800F5CFC6
:1016A00053F043C0D9FF44C0DAFFDE2A000EDD222A
:1016B00045C0D9FF46C0DAFFDFCF47F0020EDE2675
:1016C000DFCF48F0000EDD2247C0D9FF48C0DAFF67
:1016D000DECF49F0DDCF4AF049C04BF04AC04CF0B4
:1016E0004D6A4E6A4F6A506A516A526A41C01EF092
:1016F00042C01FF04BC020F04CC021F04DC022F082
:101700004EC023F04FC024F050C025F051C026F049
:1017100052C027F053C028F0ACEC88F01EC041F056
:101720001FC042F0E9EF8BF043C0D9FF44C0DAFF9D
:10173000DECFF6FFDDCFF7FF000EF86E0800F550A4
:10174000250AD8A4A6EF8BF0A8EF8BF0BFEF8BF0A3
:1017500043C0D9FF44C0DAFFDE2A000EDD22000EAE
:10176000046E250E036E41C005F042C006F055EC34
:1017700093F0000E426E010E416EE9EF8BF043C014
:10178000D9FF44C0DAFFDE2A000EDD22000E426ED1
:10179000000E416EE9EF8BF043C0D9FF44C0DAFF81
:1017A000DECFF6FFDDCFF7FF000EF86E0800F55034
:1017B000036E046A41C005F042C006F055EC93F098
:1017C00043C0D9FF44C0DAFFDE2A000EDD22B9EFA4
:1017D0008BF012000001D051D111D8B4F2EF8BF090
:1017E000F4EF8BF0BAEF8CF0000E806F000E816F7B
:1017F000200E826F410E836F9FC07CF0A0C07DF0F1
:10180000A1C07EF0A2C07FF043EC85F07CC095F0D3
:101810007DC096F07EC097F07FC098F0D4EC8DF03C
:1018200095C0A3F096C0A4F097C0A5F098C0A6F00C
:101830000001A6BF29EF8CF0A651A511A41107E164
:10184000180EA35DD8B027EF8CF029EF8CF034EFA1
:101850008CF0000EB4EC9AF0F70B0001986F000EBC
:1018600089EC9EF0BAEF8CF0A6BF42EF8CF0A65147
:10187000A5110AE1A305180EA459D8A042EF8CF0D7
:1018800044EF8CF07FEF8CF0020E986F0D0E89EC18
:101890009EF00001A6BF59EF8CF0A6510CE1A30504
:1018A000200EA459010EA559D8A059EF8CF05BEF7A
:1018B0008CF063EF8CF0000EA36F200EA46F010E6E
:1018C000A56F000EA66FA3C07CF0A4C07DF0A5C0DC
:1018D0007EF0A6C07FF0200E806F010E816F000E9B
:1018E000826F000E836F4DEC8DF07CC0A3F07DC045
:1018F000A4F07EC0A5F07FC0A6F09FEF8CF0000E94
:10190000986F0D0E89EC9EF0A3C07CF0A4C07DF012
:10191000A5C07EF0A6C07FF0180E0001806F000EFB
:10192000816F000E826F000E836F4DEC8DF07CC0D6
:10193000A3F07DC0A4F07EC0A5F07FC0A6F000019A
:10194000A3510008A36F010EA455A46F000EA55566
:10195000A56F000EA655A66FA3C098F0030E89ECE4
:101960009EF0000EB4EC9AF008090001986F000E8A
:1019700089EC9EF0120059EC9FF0F28EF28C000E72
:101980000001D16F000ED06F000ED26F1AEC91F0F3
:101990000009D8B4CEEF8CF0D0EF8CF0DBEF8CF0F8
:1019A000B50E0101996FFF0E9A6F61EC9EF058EC35
:1019B0008EF0E2EF8CF04D0E0101996FFF0E9A6FE1
:1019C00061EC9EF0000E0001A46F000EA56F000EEA
:1019D000A66F000EA76F61EC9CF00001D051D111F1
:1019E000D8A4F5EF8CF0F7EF8CF0EDEF8CF0000E53
:1019F0000101A26F000EA16F110E0001986F110E70
:101A0000996F110E9A6F000E9B6F2A0E9C6F010E3C
:101A10009D6F0101A151E9EC93F0520E0101A06FFD
:101A20002B0E9F6F000EE82EFED79F2FFCD7A02F06
:101A3000FAD700F0000E0001986F000E996F000EAB
:101A40009A6F000E9B6F2A0E9C6F010E9D6F010115
:101A5000A151E9EC93F0520E0101A06F2B0E9F6F84
:101A6000000EE82EFED79F2FFCD7A02FFAD700F04C
:101A70000101A14BA22BA2BF47EF8DF0A25109E1BA
:101A8000110EA15DD8A047EF8DF049EF8DF0FCEF6E
:101A90008CF0EDEF8CF0BDEF00F0000E0001856FD3
:101AA00083BF57EF8DF055EF8DF061EF8DF0831F01
:101AB000821F811F806D000E812382238323010EEC
:101AC000856F7FBF68EF8DF066EF8DF072EF8DF060
:101AD0007F1F7E1F7D1F7C6D000E7D237E237F2355
:101AE000010E851B000E866F000E876F000E886F3B
:101AF000000E896F8051811182118311D8B483EF58
:101B00008DF085EF8DF0BBEF8DF0010E846F8FEFC0
:101B10008DF0D8908037813782378337842B83AF1D
:101B200094EF8DF096EF8DF089EF8DF0D890863799
:101B300087378837893780517C5D81517D59825143
:101B40007E5983517F59D8A0A8EF8DF0AAEF8DF070
:101B5000B3EF8DF080517C5F81517D5B82517E5B64
:101B600083517F5B8681D890833382338133803386
:101B7000842F96EF8DF08551D8B4C1EF8DF0C3EF6F
:101B80008DF0CBEF8DF0891F881F871F866D000EAB
:101B900087238823892386C07CF087C07DF088C096
:101BA0007EF089C07FF012000001973598359E6F56
:101BB0009E51D8A4DEEF8DF0E0EF8DF0EAEF8DF0CE
:101BC000000E956F000E966F000E976F000E986FC7
:101BD00057EF8EF095C099F096C09AF097C09BF0A1
:101BE00098C09CF0200EFAEF8DF0D8909C339B3378
:101BF0009A339933E82EF5EF8DF099519D6F978FB9
:101C0000FF0E9517FF0E9617FF0E9717000E9817E9
:101C1000960E9E5F9EBF11EF8EF00FEF8EF027EFB6
:101C20008EF09E51800A970FD8B019EF8EF01BEFFF
:101C30008EF01DEF8EF0E0EF8DF0D8909833973353
:101C4000963395339E3F1DEF8EF03FEF8EF01F0EC3
:101C50009E652DEF8EF02FEF8EF037EF8EF0E0EFD8
:101C60008DF0D89095379637973798379E079E51C5
:101C7000D8A43DEF8EF03FEF8EF031EF8EF09D5106
:101C8000D8B445EF8EF047EF8EF04FEF8EF0981FEF
:101C9000971F961F956D000E96239723982395C046
:101CA00095F096C096F097C097F098C098F0120003
:101CB00075EC9EF0000E0101996FFF0E9A6F61ECBA
:101CC0009EF0000E00019F6F000EA06F2F0EA16FFF
:101CD000440EA26FC4EC91F0C70E0101996FFE0E85
:101CE0009A6F61EC9EF0000E00019F6F000EA06FD6
:101CF000FA0EA16F440EA26FEAEC8BF0650E0101A3
:101D0000996FFF0E9A6F61EC9EF0000EB0EC9EF0A2
:101D1000930E0101996FFF0E9A6F61EC9EF0800E99
:101D200000019B6F000E9A6FD4EC9EF03B0E0101F8
:101D3000996FFE0E9A6F61EC9EF07F0E00019B6F13
:101D40009A69C2EC9EF0610E0101996FFE0E9A6FC6
:101D500061EC9EF0020E19EC97F0A80E0101996F4C
:101D6000FE0E9A6F61EC9EF0CDEC9CF0340E0101FA
:101D7000996FFF0E9A6F61EC9EF00CEC99F0A50E36
:101D80000101996FFF0E9A6F61EC9EF012005EA246
:101D9000CCEF8EF096EF8FF046ECA0F00009D8B4AF
:101DA000D4EF8EF0D6EF8EF014EF8FF0E4EF8EF0DC
:101DB000A3ECA0F030EF8FF09AECA0F030EF8FF0B2
:101DC00088ECA0F030EF8FF018C187F019C188F0CF
:101DD00021EE09F002D8F7EF8EF00500FA6EDE5022
:101DE000FD6EDE50FE6EDE50FF6EFA5012000001F6
:101DF000896F8A6B8A51000AD8B401EF8FF0E0EF47
:101E00008EF08951010AD8B4E0EF8EF0030AD8B4FD
:101E1000D8EF8EF0010AD8B4DCEF8EF0070AD8B400
:101E2000E0EF8EF0E0EF8EF00101299123C1D9FFA0
:101E300024C1DAFF234B242BDF5023ECA1F0010156
:101E40002507D8A0260725512611D8A42AEF8FF000
:101E50002CEF8FF02FEF8FF0060E30EF8FF0030E88
:101E600012000001CEA137EF8FF039EF8FF043EF72
:101E70008FF090C087F091C088F08EC089F08FC03D
:101E80008AF07FEC99F0000193BF49EF8FF04BEFA0
:101E90008FF051EF8FF092C097F093C098F055EF0C
:101EA0008FF0000E986F000E976F000E966F000E69
:101EB000956F68EF8FF0000E7F6F200E7E6F8EC0E3
:101EC00080F08FC081F0BDEC92F00001954B962B15
:101ED0009751955D9651800A946F9851800A945954
:101EE000D8A075EF8FF077EF8FF05BEF8FF0CEB16A
:101EF0007CEF8FF07EEF8FF088EF8FF090C087F04F
:101F000091C088F08EC089F08FC08AF07FEC99F084
:101F100090C07CF091C07DF027EC9CF000019751BF
:101F20007C258E6F98517D218F6F12005AECA0F0A6
:101F30000009D8B49EEF8FF0A0EF8FF0DDEF8FF0A7
:101F4000AEEF8FF05AECA1F0F9EF8FF056ECA1F064
:101F5000F9EF8FF04EECA1F0F9EF8FF018C10CF013
:101F600019C10DF021EE09F002D8C1EF8FF0050084
:101F7000FA6EDE50FD6EDE50FE6EDE50FF6EFA50E1
:101F800012000E6E0F6A0F50000AD8B4CAEF8FF01D
:101F9000AAEF8FF00E50010AD8B4AAEF8FF0030A0F
:101FA000D8B4A2EF8FF0010AD8B4A6EF8FF0070AD9
:101FB000D8B4AAEF8FF0AAEF8FF00101299123C1C5
:101FC000D9FF24C1DAFF234B242BDF505EECA1F0B4
:101FD00001012507D8A0260725512611D8A4F3EF23
:101FE0008FF0F5EF8FF0F8EF8FF0060EF9EF8FF02E
:101FF000030E1200000E0001816F7FBF04EF90F00E
:1020000002EF90F00AEF90F07E6D7F1FD8B07F2B2B
:10201000010E816F7DBF11EF90F00FEF90F017EF81
:1020200090F07C6D7D1FD8B07D2B010E811B000EC2
:10203000836F000E826F7E517F11D8B422EF90F033
:1020400024EF90F04CEF90F0010E806F2CEF90F0A9
:10205000D8907E377F37802B7FAF31EF90F033EF12
:1020600090F028EF90F0D890823783377E517C5DD6
:102070007F517D59D8A03FEF90F041EF90F046EFAF
:1020800090F07E517C5F7F517D5B8281D8907F3361
:102090007E33802F33EF90F08151D8B452EF90F01F
:1020A00054EF90F058EF90F0826D831FD8B0832BDF
:1020B00082C07CF083C07DF012000001CEA163EFEE
:1020C00090F065EF90F06FEF90F015C00CF016C037
:1020D0000DF013C00EF014C00FF00BEC9AF018BE08
:1020E00074EF90F076EF90F07CEF90F017C01CF05A
:1020F00018C01DF080EF90F0000E1D6E000E1C6EDB
:10210000000E1B6E000E1A6E92EF90F0000E046E21
:10211000200E036E13C005F014C006F055EC93F0CA
:102120001A4A1B2A1C501A5C1B50800A196E1D503B
:10213000800A1958D8A09FEF90F0A1EF90F086EF99
:1021400090F00001CEB1A7EF90F0A9EF90F0B3EFBF
:1021500090F015C00CF016C00DF013C00EF014C0B6
:102160000FF00BEC9AF015C001F016C002F07EECF7
:102170009CF01C500124136E1D500220146E12009E
:102180005EA2C5EF90F018EF92F080ECA1F023C1B1
:10219000D9FF24C1DAFFDF6E0101234B242B250771
:1021A000D8A0260725512611D8B4D9EF90F0DBEF3F
:1021B00090F0E0EF90F065ECA1F0050E19EF91F0D2
:1021C0002987EBEF90F06DECA0F019EF91F076EC31
:1021D000A0F019EF91F012C187F013C188F002D876
:1021E000FCEF90F00500FA6E0051FD6E0151FE6E9D
:1021F0000251FF6EFA5012000001896F8A6B8A51FA
:10220000000AD8B406EF91F0E7EF90F08951010A87
:10221000D8B4E7EF90F0030AD8B4E3EF90F0010AE6
:10222000D8B4E3EF90F0070AD8B4E7EF90F0E7EF07
:1022300090F012000001D051D111D8B422EF91F0EA
:1022400024EF91F027EF91F0010E6EEF91F0290E3F
:10225000D26F120EB4EC9AF00001986F140E981918
:10226000D8B435EF91F037EF91F040EF91F01D0EBB
:102270009819D8A43EEF91F040EF91F046EF91F01D
:10228000000ED16F010ED06F63EF91F0390ED26F57
:10229000120EB4EC9AF00001986F140E9819D8B48D
:1022A00054EF91F056EF91F040EF91F01D0E981918
:1022B000D8A45DEF91F05FEF91F061EF91F040EF06
:1022C00091F0000ED26FD051D111D8A46AEF91F0E5
:1022D0006DEF91F0010E6EEF91F0000E1200000113
:1022E0007C6F010E00017D6F010129B57AEF91F03D
:1022F0007CEF91F0C1EF91F07CC022F12993298508
:1023000029910E0E276F010E216FF40E206F298781
:10231000DC0E006F410E016F010E026F000E126F96
:10232000000E136FDC0E036F410E046F010E056F7C
:10233000000E146F000E156FDC0E066F410E076F56
:10234000010E086F000E166F000E176FDC0E096F7E
:10235000410E0A6F010E0B6F000E186F000E196F01
:10236000CE0E0C6F410E0D6F010E0E6F000E1A6F28
:10237000000E1B6F6EECA1F00AEC9FF0000E000146
:102380007D6F00017D5112000001D051D111D8B4F0
:10239000CCEF91F0CEEF91F017EF92F0000E806F3E
:1023A000000E816F200E826F410E836F9FC07CF004
:1023B000A0C07DF0A1C07EF0A2C07FF043EC85F00C
:1023C0007CC095F07DC096F07EC097F07FC098F0FD
:1023D000D4EC8DF095C0A3F096C0A4F0A3C07CF01F
:1023E000A4C07DF0000E00017F6F180E7E6F3CECE4
:1023F00096F07CC0A3F07DC0A4F00001A305010EFF
:10240000A459D8A006EF92F008EF92F00CEF92F0EA
:10241000010EA46F000EA36F000EA325A36FFF0E85
:10242000A421A46FA3C098F0010E89EC9EF01200C5
:102430008EECA1F023C1D9FF24C1DAFFDF6E0101C8
:10244000234B242B2507D8A0260725512611D8B4C5
:102450002CEF92F02EEF92F033EF92F074ECA1F0AB
:10246000050E6BEF92F029873EEF92F042ECA1F05F
:102470006BEF92F046ECA1F06BEF92F012C10CF012
:1024800013C10DF002D84FEF92F00500FA6E005123
:10249000FD6E0151FE6E0251FF6EFA5012000E6E7B
:1024A0000F6A0F50000AD8B458EF92F03AEF92F04A
:1024B0000E50010AD8B43AEF92F0030AD8B436EFBE
:1024C00092F0010AD8B436EF92F0070AD8B43AEF86
:1024D00092F03AEF92F01200016E010E026E0101CD
:1024E00029B575EF92F077EF92F0BBEF92F001C053
:1024F00022F12993298529910E0E276F010E216F54
:10250000F40E206F2987280E006F430E016F010E15
:10251000026F000E126F000E136F280E036F430E32
:10252000046F010E056F000E146F000E156F280E5C
:10253000066F430E076F010E086F000E166F000E38
:10254000176F280E096F430E0A6F010E0B6F000EF6
:10255000186F000E196F240E0C6F430E0D6F010ED5
:102560000E6F000E1A6F000E1B6F7DECA1F01BECBE
:102570009FF0000E026E0250120000018051811186
:10258000D8B4C5EF92F0C7EF92F0D0EF92F080513F
:102590008111D8A4CEEF92F0D0EF92F0D5EF92F067
:1025A0007E51E0ECA0F008EF93F020EE09F08051AE
:1025B000D9268151DA22DE50DE10D8B4E2EF92F053
:1025C000E4EF92F0FFEF92F020EE09F08051D9266F
:1025D0008151DA2210EE03F08051E1268151E2228E
:1025E000DE50E65CE650800A866FDE50800A86592F
:1025F000D8B0FDEF92F0FFEF92F008EF93F020EEED
:1026000003F08051D9268151DA22DE2A000EDD2224
:102610001200000E866E000E856E000E826E000E99
:10262000836E000E846E070E8B6E7F0E876E886839
:102630008968FE0E8A6EFD0E0F01216F1C69D90E8E
:10264000146F070E296F7F0E0C6F000E206F000EA7
:10265000286F000E136F000E0B6F000E1B6F000E25
:10266000276F000E0A6F000E126F000E1A6F000E19
:102670001F6F0969116919691E69070E266F0869BC
:10268000106918691D690F0E256F090E0E01B26FD2
:102690000F0EEB6F0D0E9C6F100EEC6F0B0EFA6FA2
:1026A000190E886F0A0EB36F120005500610D8B4C9
:1026B0005CEF93F05EEF93F067EF93F00550061038
:1026C000D8A465EF93F067EF93F06CEF93F00350AD
:1026D00028ECA1F09FEF93F020EE09F00550D926E9
:1026E0000650DA22DE50DE10D8B479EF93F07BEF9B
:1026F00093F096EF93F020EE09F00550D92606509E
:10270000DA2210EE03F00550E1260650E222DE50F8
:10271000E65CE650800A0B6EDE50800A0B58D8B09B
:1027200094EF93F096EF93F09FEF93F020EE03F089
:102730000550D9260650DA22DE2A000EDD221200CC
:102740000001815114EC98F00001856F85C086F07E
:10275000876B886B896B88C089F087C088F086C0DA
:1027600087F0866B7F5114EC98F000018A6F8AC065
:102770008BF08C6B8D6B8E6B8CC08EF08BC08DF064
:102780008C6B8B6B86518B118F6F87518C11906F77
:1027900088518D11916F89518E11926F805114EC77
:1027A00098F00001936F93518F11946F9051956F32
:1027B0009151966F9251976F83C0D9FF84C0DAFF11
:1027C00094C0DEFF95C0DEFF96C0DEFF97C0DEFF3F
:1027D00012000001A26F98C07FF099C080F09AC0EB
:1027E00081F09BC082F00001A2519E6F9F6BD89038
:1027F0009E379F37D8909E379F379CC0A0F09DC0D2
:10280000A1F09E51A0279F51A123FC0EA025836F0C
:10281000FF0EA121846FA0EC93F0000E0001A36FC6
:10282000A351040DF3CF9EF0F4CF9FF09E519C2551
:102830007C6F9F519D217D6F00EC80F00001A32BE8
:102840000F0EA36526EF94F028EF94F010EF94F0AC
:102850009CC07CF09DC07DF000EC80F0ACECA0F062
:1028600012005EA236EF94F085EF95F00101298702
:1028700047EF94F091ECA0F075EF94F062ECA1F0CA
:10288000030E75EF94F088ECA0F075EF94F012C190
:1028900087F013C188F002D858EF94F00500FA6E63
:1028A0000051FD6E0151FE6E0251FF6EFA50120092
:1028B0000001896F8A6B8A51000AD8B462EF94F0E4
:1028C00043EF94F08951010AD8B443EF94F0030A1E
:1028D000D8B43AEF94F0010AD8B43AEF94F0070A6A
:1028E000D8B43EEF94F043EF94F012000650BBECE6
:1028F00098F00A6E0AC00BF00C6A0D6A0E6A0DC0E1
:102900000EF00CC00DF00BC00CF00B6A0450BBECC9
:1029100098F00F6E0FC010F0116A126A136A11C09E
:1029200013F010C012F0116A106A0B501010146EE0
:102930000C501110156E0D501210166E0E50131013
:10294000176E0550BBEC98F0186E18501410196EE5
:1029500015501A6E16501B6E17501C6E08C0D9FF0A
:1029600009C0DAFF19C0DEFF1AC0DEFF1BC0DEFFA0
:102970001CC0DEFF12000001816F00017C517D113F
:102980007E11D8B4C6EF94F0C8EF94F0E4EF94F061
:102990008151030D000EF324D96E010EF420DA6E7E
:1029A0007CC0DEFF7DC0DEFF7EC0DEFF8151020DF8
:1029B000120EF324D96E010EF420DA6E7FC0DEFF12
:1029C00080C0DDFFFEEF94F08151030D000EF32473
:1029D000D96E010EF420DA6EDC0EDE6E410EDE6E74
:1029E000010EDE6E8151020D120EF324D96E010E1E
:1029F000F420DA6E000EDE6E000EDD6E1200276E21
:102A00001DC004F01EC005F01FC006F020C007F076
:102A10002750236E246AD89023362436D890233644
:102A2000243621C025F022C026F02350252624502C
:102A30002622FC0E2524086EFF0E2620096E76EC59
:102A400094F0000E286E2850040DF3CF23F0F4CF3D
:102A500024F023502124016E24502220026EAEEC7B
:102A600082F0282A0F0E286438EF95F03AEF95F09F
:102A700023EF95F021C001F022C002F0AEEC82F00D
:102A8000B5ECA0F01200066E015002100310D8B48D
:102A90004CEF95F04EEF95F06AEF95F00650030D70
:102AA000000EF324D96E010EF420DA6E01C0DEFFB1
:102AB00002C0DEFF03C0DEFF0650020D120EF3243B
:102AC000D96E010EF420DA6E04C0DEFF05C0DDFF12
:102AD00084EF95F00650030D000EF324D96E010E1D
:102AE000F420DA6E280EDE6E430EDE6E010EDE6E10
:102AF0000650020D120EF324D96E010EF420DA6E88
:102B0000000EDE6E000EDD6E12000101298796EFC9
:102B100095F052ECA1F0C3EF95F071ECA1F0030E2B
:102B2000C3EF95F04EECA1F0C3EF95F012C10CF09D
:102B300013C10DF002D8A7EF95F00500FA6E005111
:102B4000FD6E0151FE6E0251FF6EFA5012000E6EC4
:102B50000F6A0F50000AD8B4B0EF95F092EF95F0DD
:102B60000E50010AD8B492EF95F0030AD8B489EF59
:102B700095F0010AD8B489EF95F0070AD8B48DEF23
:102B800095F092EF95F012005EA2C9EF95F0E3EF99
:102B900096F001012991020E286FD7EF95F091EC84
:102BA000A0F0FFEF95F088ECA0F0FFEF95F016C1D4
:102BB00087F017C188F021EE06F002D8EAEF95F011
:102BC0000500FA6EDE50FD6EDE50FE6EDE50FF6ECA
:102BD000FA5012000001896F8A6B8A51000AD8B43A
:102BE000F4EF95F0D3EF95F08951020AD8B4CFEF06
:102BF00095F0010AD8B4CFEF95F0D3EF95F012001D
:102C0000000E0B6E000E0C6E000E0D6E000E0E6EA2
:102C1000FF0E0114076E086A096A0A6A08C00AF002
:102C200007C009F0086A076A07500B1208500C1217
:102C300009500D120A500E12FF0E0314076E086A97
:102C4000096A0A6A09C00AF008C009F007C008F05A
:102C5000076A07500B1208500C1209500D120A5047
:102C60000E1205500B120BC001F00CC002F00DC08B
:102C700003F00EC004F01200000E0001826F000E7F
:102C8000816F7E517F11D8B448EF96F04AEF96F0ED
:102C900072EF96F0010E806F52EF96F0D8907E376B
:102CA0007F37802B7FAF57EF96F059EF96F04EEFBE
:102CB00096F0D890813782377E517C5D7F517D5967
:102CC000D8A065EF96F067EF96F06CEF96F07E5126
:102CD0007C5F7F517D5B8181D8907F337E33802FF5
:102CE00059EF96F081C07CF082C07DF012006EEC4E
:102CF000A1F0010129A17FEF96F081EF96F08EEF10
:102D000096F046ECA0F00009D8B489EF96F08BEF6E
:102D100096F08EEF96F00F0E0101276F01012751FB
:102D2000030DD90EF324F66EFD0EF420F76EF86A4B
:102D3000000EF82202D8AAEF96F00500FA6E0900FC
:102D4000F550FD6E0900F550FE6E0900F550FF6E5E
:102D5000FA5012000101276F12007DECA1F0010171
:102D600029A1B5EF96F0B7EF96F0C4EF96F05AECC4
:102D7000A0F00009D8B4BFEF96F0C1EF96F0C4EF11
:102D800096F00F0E0101276F01012751030DD90E97
:102D9000F324F66EFD0EF420F76EF86A000EF822AA
:102DA00002D8E0EF96F00500FA6E0900F550FD6ECE
:102DB0000900F550FE6E0900F550FF6EFA50120042
:102DC0000101276F120001012991020E286FF1EF16
:102DD00096F052ECA1F018EF97F04EECA1F018EF3E
:102DE00097F016C10CF017C10DF021EE06F002D8D5
:102DF00004EF97F00500FA6EDE50FD6EDE50FE6EB9
:102E0000DE50FF6EFA5012000E6E0F6A0F50000A6D
:102E1000D8B40DEF97F0EDEF96F00E50020AD8B44B
:102E2000E9EF96F0010AD8B4E9EF96F0EDEF96F0ED
:102E3000120000019A6F0001D051D111D8B423EFD4
:102E400097F025EF97F04CEF97F09AC09BF03C0E6F
:102E50009B652DEF97F02FEF97F031EF97F03C0E39
:102E60009B6F030E9B6537EF97F039EF97F046EFB6
:102E700097F09BC07CF07D6B000E7F6F050E7E6F20
:102E8000FAEC8FF000017C51030F9B6F9B510F0BED
:102E9000986F0C0E89EC9EF0120095C1C6F096C199
:102EA000C7F0000E0001C96F000EC86F6BEF97F0FE
:102EB00093C1BCF094C1BDF0C60EBE6F000EBF6FD3
:102EC00097C1C0F098C1C1F0FFEC89F00001BC517E
:102ED000C827BD51C923C6C0F6FFC7C0F7FF000E03
:102EE000F86E0800F5500009D8A479EF97F07BEF51
:102EF00097F058EF97F0C8C093F1C9C094F1120051
:102F000056C05AF057C05BF0000E0001C96F000EAA
:102F1000C86F9EEF97F054C041F055C042F05A0E72
:102F2000436E000E446E58C045F059C046F0F6ECB2
:102F30008AF041500001C8274250C9235AC0F6FF09
:102F40005BC0F7FF000EF86E0800F5500009D8A42A
:102F5000ACEF97F0AEEF97F08BEF97F0C8C054F05E
:102F6000C9C055F012000001916F000191516FEC42
:102F700091F00009D8B4BFEF97F0C1EF97F0B5EF2B
:102F800097F08DC07CF08EC07DF08FC07EF090C039
:102F90007FF0E6EC9EF0000E0001826F000E836F62
:102FA000000E846F000E856F000E866F86EC9FF01A
:102FB00036ECA1F0E5EC9CF0E806D8B4E2EF97F02F
:102FC000E4EF97F0DAEF97F01200166E16506CEC03
:102FD00092F00009D8B4EFEF97F0F1EF97F0E6EF39
:102FE00097F012C001F013C002F014C003F015C036
:102FF00004F0F8EC9EF0000E076E000E086E000E56
:10300000096E000E0A6E000E0B6EB0EC9FF03AECEB
:10301000A1F04BEC9EF0E806D8B411EF98F013EF56
:1030200098F009EF98F0120000017E6F7EC07CF0EE
:103030000F0E00017C177C3BF00E7C177E390F0BC6
:103040000F0B7C117E6F7EC07CF0330E7C17D89006
:103050007C37D8907C377E41E8423F0B330B7C11A4
:103060007E6F7EC07CF0550E7C17D8907C357D6FCE
:10307000D8907E31550B7D117E6F7E511200080E67
:103080000E019A6F900E986F240E996F820E966FB4
:10309000060E976F000E00017C6F000E7D6F000E14
:1030A0007E6F03ECA1F0000E00017C6F000E7D6FBF
:1030B000000E7E6FFCECA0F0000E00017C6F000E95
:1030C0007D6F000E7E6F0AECA1F0000E0001D36F41
:1030D00012005EA26EEF98F04FEF9AF0000120EE22
:1030E00002F08751D9268851DA22DECF7CF0DDCF7D
:1030F0007DF087C0D9FF88C0DAFFDECF7EF0DDCF5C
:103100007FF0E6EC9EF0000E0001826F000E836FF0
:10311000000E846F000E856F000E866F94EC9FF09A
:10312000020E12005EA297EF98F071EF9AF0000184
:1031300020EE02F08751D9268851DA22DECF7CF0CA
:10314000DDCF7DF087C0D9FF88C0DAFFDECF7EF00B
:10315000DDCF7FF0E6EC9EF0000E0001826F000EE6
:10316000836F000E846F000E856F000E866F94ECE7
:103170009FF0020E1200036E03C001F00F0E011645
:10318000013AF00E011603380F0B0F0B0110036EFE
:1031900003C001F0330E0116D8900136D8900136E5
:1031A0000340E8423F0B330B0110036E03C001F0F4
:1031B000550E0116D8900134026ED8900330550B8D
:1031C0000210036E0350120000018B6F010E00010C
:1031D0008C6F010129B3EFEF98F0F1EF98F009EF50
:1031E00099F02983000E00018C6F8B51D8B4FBEF4E
:1031F00098F0FDEF98F002EF99F0010E0101276FB2
:1032000005EF99F0020E0101276F88ECA1F04AEC5E
:103210009FF000018C5112001AEC91F00001D05186
:10322000D111D8B416EF99F018EF99F032EF99F068
:10323000000EB4EC9AF001090001986F000E89ECC1
:103240009EF03F0E00019A6F550EE82EFED79A2F82
:10325000FCD7000EB4EC9AF002090001986F000E42
:1032600089EC9EF012001E6E1E50A0090001D46F62
:10327000D40E176E000E186E000E1A6E010E196E27
:10328000D251F3EC9FF0D40E176E000E186E000EA4
:103290001A6E020E196E0001D25100ECA0F000016E
:1032A000D551206E1F6AD4511F121FC01CF020C0C0
:1032B0001DF012000001916F000191516FEC91F02F
:1032C0000009D8B466EF99F068EF99F05CEF99F0D7
:1032D0008DC07CF08EC07DF08FC07EF090C07FF0FE
:1032E000E6EC9EF032ECA1F0E5EC9CF0E806D8B4F8
:1032F0007CEF99F07EEF99F074EF99F01200000ED8
:1033000000018D6F000E8C6F92EF99F08BC07EF0F4
:103310007F6B89C080F08AC081F0BDEC92F0000123
:103320008C4B8D2B8C518725D96E8D518821DA6E6F
:10333000DF508B6F8B51D8A4A0EF99F0A2EF99F0DA
:1033400086EF99F012009F0E0001846FFF0E856FCB
:1033500082C086F083C087F08451862785518723F9
:10336000875107E11A0E865DD8B0B9EF99F0BBEF2F
:1033700099F0C1EF99F05F0E8215826F836BC5EFF4
:1033800099F082C082F083C083F01200166E16504E
:103390006CEC92F00009D8B4D0EF99F0D2EF99F02C
:1033A000C7EF99F012C001F013C002F014C003F08F
:1033B00015C004F0F8EC9EF03EECA1F04BEC9EF052
:1033C000E806D8B4E6EF99F0E8EF99F0DEEF99F06F
:1033D00012009F0E056EFF0E066E03C007F004C0BC
:1033E00008F00550072606500822085007E11A0E7B
:1033F000075CD8B0FEEF99F000EF9AF006EF9AF074
:103400005F0E0314036E046A0AEF9AF003C003F020
:1034100004C004F01200000E126E000E116E1CEFBC
:103420009AF010C003F0046A0EC005F00FC006F059
:1034300055EC93F0114A122A11500C24D96E1250F7
:103440000D20DA6EDF50106E1050D8A42AEF9AF0DB
:103450002CEF9AF011EF9AF01200106E010E116E1F
:10346000010129B336EF9AF038EF9AF04DEF9AF058
:103470002983000E116E1050D8B441EF9AF043EF3B
:103480009AF047EF9AF0010E276F49EF9AF0020E7B
:10349000276F9AECA1F077EC9FF01150120020EE0C
:1034A00002F00C50D9260D50DA22DECF01F0DDCF2C
:1034B00002F00CC0D9FF0DC0DAFFDECF03F0DDCF84
:1034C00004F0F8EC9EF0000E076E000E086E000E81
:1034D000096E000E0A6E000E0B6EBEEC9FF0020E1F
:1034E000120020EE02F00C50D9260D50DA22DECF69
:1034F00001F0DDCF02F00CC0D9FF0DC0DAFFDECF46
:1035000003F0DDCF04F0F8EC9EF0000E076E000E25
:10351000086E000E096E000E0A6E000E0B6EBEECF9
:103520009FF0020E12008E0EF66E410EF76E010E27
:10353000F86E01EEA3F010EE11F00900F5CFEEFFEA
:10354000E550E150FAE101EE00F08A0EEE6AE8067D
:10355000FDE100EEC8F00F0EEE6AE806FDE15E90B8
:103560005E920001BBEF8CF00001976F0001975154
:103570008009D46FD40E926F000E936F000E956F7A
:10358000010E946FD2513BEC9FF0D40E0001926F6C
:10359000000E936F000E956F010E946FD2512CECBC
:1035A0009FF00001D45112009F0E00017E6FFF0EAC
:1035B0007F6F200E7C11806F000E7D11816F7E5118
:1035C00080277F51812381510AE11A0E805DD8A0A6
:1035D000ECEF9AF0EFEF9AF0010EF0EF9AF0000E98
:1035E0007C6F7D6B12005EA2F8EF9AF075EF9DF094
:1035F00087C07CF088C07DF0000E00017F6F010E57
:103600007E6FE6EC9EF0000E0001826F000E836F6D
:10361000000E846F000E856F000E866F94EC9FF095
:10362000040E12005EA217EF9BF08DEF9DF087C095
:103630007CF088C07DF0000E00017F6F020E7E6F6F
:10364000E6EC9EF0000E0001826F000E836F000E0C
:10365000846F000E856F000E866F94EC9FF0020E53
:1036600012005EA236EF9BF0A5EF9DF087C07CF0C4
:1036700088C07DF0000E00017F6F010E7E6FE6ECCA
:103680009EF0000E0001826F000E836F000E846FAB
:10369000000E856F000E866F94EC9FF0020E1200F4
:1036A0005EA255EF9BF0BDEF9DF087C07CF088C017
:1036B0007DF0000E00017F6F020E7E6FE6EC9EF043
:1036C000000E0001826F000E836F000E846F000EEB
:1036D000856F000E866F94EC9FF0040E12005EA2C0
:1036E00074EF9BF0D5EF9DF087C07CF088C07DF033
:1036F000000E00017F6F020E7E6FE6EC9EF0000E62
:103700000001826F000E836F000E846F000E856FC4
:10371000000E866F94EC9FF0020E12005EA293EFF3
:103720009BF0EDEF9DF087C07CF088C07DF0000E2F
:1037300000017F6F010E7E6FE6EC9EF0000E00012F
:10374000826F000E836F000E846F000E856F000E77
:10375000866F94EC9FF0020E12005EA2B2EF9BF017
:1037600005EF9EF087C07CF088C07DF0000E000160
:103770007F6F010E7E6FE6EC9EF0000E0001826FFF
:10378000000E836F000E846F000E856F000E866F33
:1037900094EC9FF0040E12005EA2D1EF9BF01DEF9F
:1037A0009EF087C07CF088C07DF0000E00017F6F26
:1037B000020E7E6FE6EC9EF0000E0001826F000E9E
:1037C000836F000E846F000E856F000E866F94EC81
:1037D0009FF0040E12001C6E1C5080090001D46F73
:1037E000D40E176E000E186E000E1A6E010E196EB2
:1037F000D251F3EC9FF0D40E176E000E186E000E2F
:103800001A6E010E196E0001D25100ECA0F00001F9
:10381000D45112009F0E00017E6FFF0E7F6F7CC09F
:1038200080F07DC081F07E5180277F5181238151BE
:103830000AE11A0E805DD8A020EF9CF023EF9CF0E7
:10384000010E24EF9CF0000E7C6F7D6B12007CC09B
:103850007EF07DC07FF030EF9CF000017C4B7D2B33
:103860007CC0D9FF7DC0DAFFDF50D8A43AEF9CF0CE
:103870003CEF9CF02DEF9CF000017E517C5D7C6F55
:103880007F517D597D6F1200BF0E00017E6FFF0ECC
:103890007F6F7CC080F07DC081F07E5180277F519A
:1038A000812381510AE11A0E805DD8A05AEF9CF065
:1038B0005DEF9CF0010E5EEF9CF0000E7C6F7D6B67
:1038C0001200010E0001A86FA4C098F0A5C099F0E5
:1038D000A6C09AF0A7C09BF02A0E9C6F010E9D6FA8
:1038E000A851E9EC93F00001A82B100EA8657BEF1E
:1038F0009CF07DEF9CF064EF9CF0120001C003F09F
:1039000002C004F086EF9CF0014A022A01C0D9FFF0
:1039100002C0DAFFDF50D8A490EF9CF092EF9CF049
:1039200084EF9CF00350015C016E04500258026E5B
:1039300012000001D051D111D8B4A1EF9CF0A3EF37
:103940009CF0B2EF9CF0130EEBEC9BF01D6E1DB0E3
:10395000ACEF9CF0AFEF9CF0010EB0EF9CF0000ECE
:10396000B3EF9CF0000E12000001D751D811D9110D
:10397000D8B4BDEF9CF0BFEF9CF0CCEF9CF002D828
:10398000CCEF9CF00500FA6ED751FD6ED851FE6E5B
:10399000D951FF6EFA50120012000001D051D1111E
:1039A000D8B4D5EF9CF0D7EF9CF0E4EF9CF0E60E96
:1039B000D46FD40E926F000E936F000E956F010EB0
:1039C000946FD2513BEC9FF01200010E00017C6F0E
:1039D000010129B3EEEF9CF0F0EF9CF0FAEF9CF0C0
:1039E000299522696EECA1F06BECA1F08AECA1F0B4
:1039F00028C17CF000017C5112000001D051D1118E
:103A0000D8B405EF9DF007EF9DF014EF9DF0E60EA2
:103A1000D46FD40E176E000E186E000E1A6E010EC3
:103A2000196ED251F3EC9FF012000001D051D11168
:103A3000D8B41DEF9DF01FEF9DF028EF9DF0160EFE
:103A400033EC99F01CC021F01DC022F02CEF9DF04A
:103A5000000E226E000E216E12000001D051D11115
:103A6000D8B435EF9DF037EF9DF040EF9DF0180E84
:103A700033EC99F01CC021F01DC022F044EF9DF002
:103A8000000E226E000E216E12000001D051D111E5
:103A9000D8B44DEF9DF04FEF9DF058EF9DF0140E10
:103AA00033EC99F01CC021F01DC022F05CEF9DF0BA
:103AB000000E226E000E216E12000001D051D111B5
:103AC000D8B465EF9DF067EF9DF070EF9DF01A0E92
:103AD00033EC99F01CC021F01DC022F074EF9DF072
:103AE000000E226E000E216E12000CC001F00DC0FF
:103AF00002F0000E046E010E036EF8EC9EF0000E54
:103B0000076E000E086E000E096E000E0A6E000EA3
:103B10000B6EBEEC9FF0040E12000CC001F00DC045
:103B200002F0000E046E020E036EF8EC9EF0000E22
:103B3000076E000E086E000E096E000E0A6E000E73
:103B40000B6EBEEC9FF0020E12000CC001F00DC017
:103B500002F0000E046E010E036EF8EC9EF0000EF3
:103B6000076E000E086E000E096E000E0A6E000E43
:103B70000B6EBEEC9FF0020E12000CC001F00DC0E7
:103B800002F0000E046E020E036EF8EC9EF0000EC2
:103B9000076E000E086E000E096E000E0A6E000E13
:103BA0000B6EBEEC9FF0040E12000CC001F00DC0B5
:103BB00002F0000E046E020E036EF8EC9EF0000E92
:103BC000076E000E086E000E096E000E0A6E000EE3
:103BD0000B6EBEEC9FF0020E12000CC001F00DC087
:103BE00002F0000E046E010E036EF8EC9EF0000E63
:103BF000076E000E086E000E096E000E0A6E000EB3
:103C00000B6EBEEC9FF0020E12000CC001F00DC056
:103C100002F0000E046E010E036EF8EC9EF0000E32
:103C2000076E000E086E000E096E000E0A6E000E82
:103C30000B6EBEEC9FF0040E12000CC001F00DC024
:103C400002F0000E046E020E036EF8EC9EF0000E01
:103C5000076E000E086E000E096E000E0A6E000E52
:103C60000B6EBEEC9FF0040E12000001996F000174
:103C70009951A009D46F97C0D5F09851D66FD40E42
:103C8000926F000E936F000E956F030E946FD251DA
:103C90003BEC9FF01200010E016E010129B353EFBE
:103CA0009EF055EF9EF05FEF9EF0299522697DEC26
:103CB000A1F07AECA1F09CECA1F028C101F0015038
:103CC00012009B0E01019D6F010E9E6F000E936FFF
:103CD000000E946F99C195F19AC196F19D0E976F60
:103CE000010E986F4DEC97F012000001D051D111E8
:103CF000D8B47DEF9EF07FEF9EF088EF9EF0000E2F
:103D0000B4EC9AF010090001986F000E89EC9EF057
:103D100012000001996F000199518009D46F98C079
:103D2000D5F0D40E926F000E936F000E956F020EB9
:103D3000946FD2513BEC9FF01200620E5C6E000E4D
:103D40005D6E000E546E000E556E60C056F061C080
:103D500057F05C0E586E000E596E80EC97F0120012
:103D600000019A6F0001D051D111D8B4BAEF9EF082
:103D7000BCEF9EF0C1EF9EF09AC098F00F0E89EC58
:103D80009EF012000001D051D111D8B4CAEF9EF0BC
:103D9000CCEF9EF0D3EF9EF09AC097F09BC098F0C6
:103DA000040E35EC9EF012000001D051D111D8B4B0
:103DB000DCEF9EF0DEEF9EF0E5EF9EF09AC097F00C
:103DC0009BC098F0060E35EC9EF01200010129A769
:103DD000ECEF9EF0EEEF9EF0F7EF9EF07CC023F14B
:103DE0007DC024F17EC025F17FC026F12997120005
:103DF000010129A7FEEF9EF000EF9FF009EF9FF071
:103E000001C023F102C024F103C025F104C026F152
:103E10002997120095BA0FEF9FF011EF9FF01AEF5C
:103E20009FF0000E946E080E956E000E966E9F0E1B
:103E3000926E958A120095BA20EF9FF022EF9FF0C4
:103E40002BEF9FF0000E946E080E956E000E966E8E
:103E50009F0E926E958A12000001966F92C08DF0AF
:103E600093C08EF094C08FF095C090F000019651F1
:103E70005AEC99F012000001966F92C08DF093C039
:103E80008EF094C08FF095C090F000019651B3EC85
:103E900097F0120050EF9FF064ECA0F077EC96F0F2
:103EA000010129B356EF9FF058EF9FF04CEF9FF0C0
:103EB00012008CECA1F0A2EC9FF050ECA0F009EC09
:103EC00093F00DECA0F068EC9FF03FEC98F012003E
:103ED0000E01C591F290420E00017C6F430E7D6F82
:103EE000010E7E6FF5ECA0F00E01BD8112007DEF9A
:103EF0009FF0BEECA0F0ADEC96F0010129B383EF8A
:103F00009FF085EF9FF079EF9FF0120082C07CF068
:103F100083C07DF084C07EF085C07FF086C080F0D5
:103F2000020EBBEC94F0120082C07CF083C07DF0E6
:103F300084C07EF085C07FF086C080F0000EBBECB0
:103F400094F01200000E0E01DC6F000EDD6F000E0B
:103F5000DE6F000EDF6F000EE06F000EE16F1200EB
:103F600007C001F008C002F009C003F00AC004F065
:103F70000BC005F0020E43EC95F0120007C001F0F3
:103F800008C002F009C003F00AC004F00BC005F03D
:103F9000000E43EC95F0120000017C6F0E01C8ADDD
:103FA000D4EF9FF0D6EF9FF0CEEF9FF07CC095FE50
:103FB00012005EA2DEEF9FF0D0EFA0F00101298198
:103FC0002251222523ECA1F0030E12005EA2EBEF9A
:103FD0009FF0D8EFA0F001012981D880223523EC91
:103FE000A1F0050E12001B6E17C012F018C013F0DE
:103FF00019C014F01AC015F01B50E5EC97F0120030
:104000001B6E17C012F018C013F019C014F01AC0BC
:1040100015F01B50C6EC99F01200600E0E01D36F24
:10402000000ED56F000ED76F080ED96F000ED86F37
:104030001200016E0E01C8AD20EFA0F022EFA0F03B
:104040001AEFA0F001C095FE12005EA22AEFA0F0C8
:1040500011EFA1F001012993000E286F0E0E12003E
:104060005EA235EFA0F017EFA1F00101299182ECDB
:10407000A1F0040E12005EA240EFA0F01DEFA1F02F
:1040800001012993000E286F0E0E120096BC4BEF13
:10409000A0F04EEFA0F0010E4FEFA0F0000E1200C6
:1040A000000E946E080E956E000E966E9F0E926E28
:1040B000959A120096BC5FEFA0F062EFA0F0010E9F
:1040C00063EFA0F0000E12000E01C8A16AEFA0F08D
:1040D0006CEFA0F064EFA0F012005EA272EFA0F00F
:1040E00042EFA1F068ECA1F0090E12005EA27BEF96
:1040F000A0F046EFA1F068ECA1F00A0E12005EA25B
:1041000084EFA0F04AEFA1F065ECA1F0050E1200DB
:104110005EA28DEFA0F04EEFA1F084ECA1F0000EB6
:1041200012005EA296EFA0F052EFA1F086ECA1F093
:10413000010E12005EA29FEFA0F056EFA1F086ECF8
:10414000A1F0020E12005EA2A8EFA0F05AEFA1F0BB
:1041500086ECA1F0010E1200A00E00D0E82EFDD7D3
:10416000350EE82EFED700F01200A00E00D0E82E8B
:10417000FDD7350EE82EFED700F012000E01C8A1C3
:10418000C4EFA0F0C6EFA0F0BEEFA0F01200000058
:0F419000A1A2A3A4A5A6A7A8A9AAABACADAEAF48
:1041A00001012981225122255EECA1F0030E1200AB
:1041B00001012981D88022355EECA1F0050E1200A4
:1041C00000017D6F00017D51CCEC9FF012005EA2DA
:1041D000ECEFA0F092EFA1F0050E12005EA2F3EF5B
:1041E000A0F094EFA1F0010E12007CC0D7F07DC0CA
:1041F000D8F07EC0D9F012007CC0DDF07DC0DEF0CA
:104200007EC0DFF012007CC0E0F07DC0E1F07EC037
:10421000E2F012007CC0DAF07DC0DBF07EC0DCF0A2
:10422000120001012993000E286F0E0E12000101E9
:10423000299190ECA1F0040E120001012993000EC7
:10424000286F0E0E120000017C6F7CC091FF1200DF
:10425000026E025019ECA0F012000E01C591B4ECF0
:104260009CF01200010EE4EC98F01200000EE4EC59
:1042700098F01200000E2DEC9AF01200010E2DECB9
:104280009AF0120077ECA1F0090E120077ECA1F081
:104290000A0E120074ECA1F0050E120096ECA1F0CB
:1042A000000E120098ECA1F0010E120098ECA1F0A3
:1042B000020E120098ECA1F0010E1200016E01C076
:1042C00091FF12000E01C8811200969A9688120082
:1042D000968A968812000E01C09112000E01C891B4
:1042E00012000E01C8811200969A96881200968AD2
:1042F000968812000E01C09112000E01C8911200A2
:104300009150120096861200968412009682120036
:1043100096801200959A1200F29A120091501200A3
:1043200096861200050E1200010E120096841200ED
:104330009682120096801200959A120012001200C6
:044340001200120055
:020000040020DA
:10000000FFFFFFFFFFFFFFFFFFFFFFFFFFFFFFFF00
:10001000FFFFFFFFFFFFFFFFFFFFFFFFFFFFFFFFF0
:10002000FFFFFFFFFFFFFFFFFFFFFFFFFFFFFFFFE0
:10003000FFFFFFFFFFFFFFFFFFFFFFFFFFFFFFFFD0
:10004000FFFFFFFFFFFFFFFFFFFFFFFFFFFFFFFFC0
:10005000FFFFFFFFFFFFFFFFFFFFFFFFFFFFFFFFB0
:10006000FFFFFFFFFFFFFFFFFFFFFFFFFFFFFFFFA0
:10007000FFFFFFFFFFFFFFFFFFFFFFFFFFFFFFFF90
:10008000FFFFFFFFFFFFFFFFFFFFFFFFFFFFFFFF80
:10009000FFFFFFFFFFFFFFFFFFFFFFFFFFFFFFFF70
:1000A000FFFFFFFFFFFFFFFFFFFFFFFFFFFFFFFF60
:1000B000FFFFFFFFFFFFFFFFFFFFFFFFFFFFFFFF50
:1000C000FFFFFFFFFFFFFFFFFFFFFFFFFFFFFFFF40
:1000D000FFFFFFFFFFFFFFFFFFFFFFFFFFFFFFFF30
:1000E000FFFFFFFFFFFFFFFFFFFFFFFFFFFFFFFF20
:1000F000FFFFFFFFFFFFFFFFFFFFFFFFFFFFFFFF10
:020000040030CA
:0C0000008CFFFFFF9FFFFFFFFFFFFFFFD3
:00000001FF
